:100000000C9434000C943E000C943E000C943E0082
:100010000C943E000C943E000C943E000C943E0068
:100020000C943E000C943E000C943E000C943E0058
:100030000C943E000C943E000C943E000C943E0048
:100040000C943E000C943E000C943E000C943E0038
:100050000C943E000C943E000C943E000C943E0028
:100060000C943E000C943E0011241FBECFEFD8E04C
:10007000DEBFCDBF0E9478000C947F000C9400007E
:1000800084E087B98CE284B92A9A83E58CBD83EC3D
:1000900099E00197F1F700C0000008952A9880ECDC
:1000A0008EBD0DB407FEFDCF2A9A8FE493EC019725
:1000B000F1F700C0000093E08FE02A989EBD0DB4D8
:1000C00007FEFDCF8EBD0DB407FEFDCF1EBC0DB4E7
:1000D00007FEFDCFE1EEF4E03197F1F700C000003C
:1000E0002A9AE3ECF9E03197F1F700C00000E5CF80
:1000F0008FEF87B90E94400080EA0E944E00F8947A
:02010000FFCF2F
:00000001FF
